:100000000C94EF000C9417010C9417010C94170139
:100010000C9417010C9417010C9417010C94170100
:100020000C9417010C9417010C9417010C941701F0
:100030000C9417010C9417010C9417010C941701E0
:100040000C9470060C9417010C94B2020C948C0260
:100050000C9417010C9417010C9417010C941701C0
:100060000C9417010C94170100407A10F35A00A069
:10007000724E18090010A5D4E80000E87648170071
:1000800000E40B54020000CA9A3B000000E1F505B1
:10009000000080969800000040420F000000A086FB
:1000A00001000000102700000000E803000000002D
:1000B0006400000000000A000000000001000000D1
:1000C00000002C76D888DC674F0823DFC1DFAE59EB
:1000D000E1B1B796E5E3E453C63AE651997696E87E
:1000E000E6C28426EB898C9B62ED407C6FFCEFBC02
:1000F0009C9F40F2BAA56FA5F490055A2AF75C932D
:100100006B6CF9676DC11BFCE0E40D47FEF520E662
:10011000B500D0ED902E0300943577050080841E45
:10012000080000204E0A000000C80C333333330FA0
:10013000986E12831141EF8D2114893BE65516CF3D
:10014000FEE6DB18D1844B381BF77C1D901DA4BB49
:10015000E424203284725E228100C9F124ECA1E5FE
:100160003D27005EBCE2613FDD83C29C7E20A3FD93
:100170001F41009D23BE46DB65F88C11AF32CA5784
:10018000E9740000000800020100000304070000F9
:1001900000000000000000000000250028002B00E7
:1001A00000000000240027002A00000000002300B7
:1001B00026002900040404040404040402020202C8
:1001C000020203030303030301020408102040801A
:1001D000010204081020010204081020A2091124C1
:1001E0001FBECFEFD8E0DEBFCDBF22E0AAE4B1E072
:1001F00001C01D92AC33B207E1F711E0A0E0B1E01D
:10020000E6EBF5E202C005900D92AA34B107D9F7EA
:1002100010E0CFEED0E004C02197FE010E94240E32
:10022000CE3ED107C9F70E94BA060C94D9120C949D
:100230000000CF92DF92EF92FF920F931F93CF9324
:10024000DF936C017A018B01C0E0D0E0CE15DF05B1
:1002500081F0D8016D918D01D601ED91FC91019055
:10026000F081E02DC6010995892B11F02196EECF82
:100270007E01C701DF91CF911F910F91FF90EF9009
:10028000DF90CF900895089580E090E00895FC01FC
:10029000538D448D252F30E0842F90E0821B930BEB
:1002A000541710F0CF96089501970895FC01918D91
:1002B000828D981761F0828DDF01A80FB11D5D96C8
:1002C0008C91928D9F5F9F73928F90E008958FEF36
:1002D0009FEF0895FC01918D828D981731F0828DEA
:1002E000E80FF11D858D90E008958FEF9FEF089541
:1002F000FC01918D228D892F90E0805C9F4F821BA5
:1003000091098F739927089588E591E00E947801FB
:1003100021E0892B09F420E0822F0895FC01848DCF
:10032000DF01A80FB11DA35ABF4F2C91848D90E01F
:1003300001968F739927848FA689B7892C93A089FA
:10034000B1898C91837080648C93938D848D981384
:1003500006C00288F389E02D80818F7D8083089517
:10036000EF92FF920F931F93CF93DF93EC0181E005
:10037000888F9B8D8C8D981305C0E889F9898081C1
:1003800085FD26C0F62E0B8D10E00F5F1F4F0F73FB
:100390001127E02E8C8DE8120CC00FB607FCFACFA7
:1003A000E889F989808185FFF5CFCE010E948E0111
:1003B000F1CF8B8DFE01E80FF11DE35AFF4FF08264
:1003C0009FB7F8940B8FEA89FB89808180620AC00D
:1003D0009FB7F894EE89FF896083E889F989808165
:1003E0008370806480839FBF81E090E0DF91CF9134
:1003F0001F910F91FF90EF900895CF93DF93EC0141
:10040000888D8823C9F0EA89FB89808185FD05C034
:10041000A889B9898C9186FD0FC00FB607FCF5CF6E
:10042000808185FFF2CFA889B9898C9185FFEDCFB6
:10043000CE010E948E01E7CFDF91CF91089580E039
:1004400090E0892B29F00E94840181110C94000016
:100450000895CF93DF93EC0188E591E00E94780145
:10046000892B29F088E591E00E945601F5CF20976D
:1004700069F0FE0101900020E9F73197AF014C1BB4
:100480005D0BBE0188E591E00E9419016FEF88E5E0
:1004900091E00E94B0016FEF88E591E00E94B00109
:1004A0006FEF88E591E0DF91CF910C94B00181E08E
:1004B0000E94FE0360EB76E380E090E00E94B205CC
:1004C00080E00C94FE030E9411100F931F93CF93B2
:1004D000DF93EC0188819981009729F02A813B8183
:1004E0002617370788F48B016F5F7F4F0E944B0FF1
:1004F000009761F0998388831B830A832C813D8157
:10050000232B11F4FC01108281E001C080E0DF9117
:10051000CF911F910F9108951F920F920FB60F92D6
:1005200011242F933F934F935F936F937F938F93F8
:100530009F93AF93BF93EF93FF9388E591E00E9461
:100540008E01FF91EF91BF91AF919F918F917F911C
:100550006F915F914F913F912F910F900FBE0F9030
:100560001F9018951F920F920FB60F9211242F9380
:100570008F939F93EF93FF93E0916801F09169014E
:100580008081E0916E01F0916F0182FD12C0908137
:10059000809171018F5F8F7320917201821751F0EA
:1005A000E0917101F0E0E85AFE4F958F8093710160
:1005B00001C08081FF91EF919F918F912F910F90BA
:1005C0000FBE0F901F901895DC0180E0615098F0ED
:1005D0002D91982F9227E92FEF70F0E0EE59FE4F02
:1005E000249192959F70E92FF0E0EE58FE4FE49130
:1005F000822F8E27EBCF0895FC0190810180F2813C
:10060000E02DF8948181892B81832281892F809527
:1006100028232283A7E0B0E01197F1F721818223FC
:100620008183A3E2B0E01197F1F780817894EFEC39
:10063000F0E03197F1F7982381E009F480E0089524
:10064000FC0190810180F281E02D892F809560FF6F
:1006500012C0F8942281822382838181892B818335
:10066000A3E2B0E01197F1F78281982B92837894FE
:1006700087ED90E011C0F8942281822382838181EA
:10068000892B8183AFEFB0E01197F1F78281982B2E
:10069000928378948FE090E00197F1F70895DF92CC
:1006A000EF92FF920F931F93CF93DF93EC01D62E1F
:1006B000E42E08E010E0FF24F39461E08D2D8F21FB
:1006C00009F460E0CE010E942003FF0C01501109E3
:1006D000A1F7E11010C0F894E981FA819181888135
:1006E000809589238183E981FA819281888180952F
:1006F000892382837894DF91CF911F910F91FF908E
:10070000EF90DF900895EF92FF920F931F93CF9396
:10071000DF938C017B0140E065E50E944F03E70118
:1007200088E0E80EF11C699140E0C8010E944F0387
:10073000CE15DF05C1F7DF91CF911F910F91FF908B
:10074000EF900895DC012C911196ED91FC91129798
:10075000F8948181922F90958923818378948DE7F5
:1007600043E050E0815021F1DA011197F1F7308137
:100770003223C1F3F8948281892382838181822B81
:1007800081837894ABE7B7E01197F1F7F894818112
:100790009823918383E191E00197F1F780812823E9
:1007A00081E009F080E07894E3E6F6E03197F1F734
:1007B00008953FB7F8948091260290912702A09166
:1007C0002802B091290226B5A89B05C02F3F19F039
:1007D0000196A11DB11D3FBFBA2FA92F982F8827C1
:1007E000820F911DA11DB11DBC01CD0142E0660F1C
:1007F000771F881F991F4A95D1F70895E8E8F1E01F
:100800009491EEECF1E02491EAEBF1E0E491EE2337
:1008100009F43CC0992339F1933091F038F49130C8
:10082000A9F0923001F594B59F7D12C0973091F0F8
:100830009830A1F09430B9F4909180009F7D03C06E
:10084000909180009F77909380000DC094B59F7722
:1008500094BD09C09091B0009F7703C09091B00003
:100860009F7D9093B000F0E0EE0FFF1FEA56FE4F21
:10087000A591B4919FB7F894811104C08C912095F3
:10088000282302C0EC912E2B2C939FBF0895AF928A
:10089000BF92CF92DF92EF92FF920F931F93CF936D
:1008A000DF938B01BC0180911302909114020E948E
:1008B000830340E06EEB80911302909114020E943A
:1008C0004F03E801680189E0C80ED11CA090130213
:1008D000B090140288E0E82EF12C10E001E0C50190
:1008E0000E94FC028111102B000F81E0E81AF10830
:1008F000B1F71993CC16DD0649F780911302909158
:1009000014020E94A20391E0813009F090E0892F47
:10091000DF91CF911F910F91FF90EF90DF90CF90DB
:10092000BF90AF900895BF92CF92DF92EF92FF9267
:100930000F931F93CF93DF93EC016B018D85811192
:1009400005C0CE010E94A203811105C01B861D8631
:100950001C8680E060C040E060EFCE010E944F0343
:1009600001E0E12CB12C11E0CE010E94FC02F82E36
:10097000CE010E94FC0291E0F91203C08130B1F473
:1009800034C02E2D30E0F8121BC08B85181738F4B8
:10099000FE01E20FF31F8381802341F402C081171F
:1009A00029F0F12C193058F41C8709C0FE01EE0D16
:1009B000F11D8381802B8383FF24F39409C0B12E22
:1009C000FE01E20FF31F9381802F8095892383839B
:1009D0006F2DCE010E9420031F5F000F11F4E394DE
:1009E00001E087E08E1508F0BFCF113408F4AECFD8
:1009F000BB86B11002C081E08D878B81882309F40A
:100A0000A5CFDE011396F6012B968D918193CA171F
:100A1000DB07D9F781E0DF91CF911F910F91FF9014
:100A2000EF90DF90CF90BF900895EF92FF920F93D9
:100A30001F93CF93DF936115710511F480E01FC000
:100A4000FB0101900020E9F73197E61BF70BB1F0AD
:100A50007B01EC010C811D810E0F1F1FB8010E944C
:100A60006502882359F3288139818C819D81B701E2
:100A7000820F931F0E941F101D830C8381E0DF9162
:100A8000CF911F910F91FF90EF900895E8E5F1E06D
:100A9000A089B18982E08C93A485B5851C92A68536
:100AA000B7858FEC8C93108EA489B58986E08C93E2
:100AB000A289B3898C9180618C93A289B3898C912E
:100AC00088608C93A289B3898C9180688C9302880A
:100AD000F389E02D80818F7D808308950F931F938C
:100AE000CF93DF93CDB7DEB729970FB6F894DEBF6B
:100AF0000FBECDBF8C0180911302909114020E9411
:100B0000A203882309F1BE016F5F7F4FC8010E94D5
:100B100047048823C9F068E0CE0101960E94E402F0
:100B20009985891311C08D818F3361F020F48F3145
:100B300059F489E00CC08F3519F08F3739F004C0B3
:100B40008BE005C08AE003C080E001C08CE02996FC
:100B50000FB6F894DEBF0FBECDBFDF91CF911F91CE
:100B60000F9108958F929F92AF92BF92CF92DF9292
:100B7000EF92FF926B017C010E94D9034B015C0153
:100B8000C114D104E104F104F1F00E94D903DC01A5
:100B9000CB0188199909AA09BB09883E9340A10590
:100BA000B10570F321E0C21AD108E108F10888EE1E
:100BB000880E83E0981EA11CB11CC114D104E1046D
:100BC000F10419F7DDCFFF90EF90DF90CF90BF9049
:100BD000AF909F908F9008952FB7F8946091220264
:100BE0007091230280912402909125022FBF0895D5
:100BF0008F929F92AF92BF92EF92FF920F931F93AB
:100C0000CF93DF9300D000D0CDB7DEB719821A8220
:100C10001B821C8284E690E0A0E0B0E080935C013F
:100C200090935D01A0935E01B0935F018E010F5F11
:100C30001F4F7E0185E0E80EF11C0E94EC056093D9
:100C4000600170936101809362019093630188E574
:100C500091E00E94560197FF2CC00E94EC05809005
:100C6000600190906101A0906201B0906301DC018D
:100C7000CB0188199909AA09BB0980905C01909061
:100C80005D01A0905E01B0905F0188159905AA05ED
:100C9000BB05E8F28981813051F48A818F3F39F4B4
:100CA0008B818F3F21F481E09C819F3F51F080E058
:100CB00008C0F80181938F01EE16FF0609F0BDCF41
:100CC000E9CF0F900F900F900F90DF91CF911F9170
:100CD0000F91FF90EF90BF90AF909F908F900895ED
:100CE0001F920F920FB60F9211242F933F938F9361
:100CF0009F93AF93BF938091220290912302A09182
:100D00002402B09125023091210223E0230F2D37D8
:100D100020F40196A11DB11D05C026E8230F0296FF
:100D2000A11DB11D209321028093220290932302E2
:100D3000A0932402B093250280912602909127026D
:100D4000A0912802B09129020196A11DB11D8093A6
:100D5000260290932702A0932802B0932902BF9104
:100D6000AF919F918F913F912F910F900FBE0F9058
:100D70001F901895CF93DF93CDB7DEB76F970FB65F
:100D8000F894DEBF0FBECDBF789484B5826084BD79
:100D900084B5816084BD85B5826085BD85B581607F
:100DA00085BD80916E00816080936E0010928100FD
:100DB00080918100826080938100809181008160B8
:100DC0008093810080918000816080938000809179
:100DD000B10084608093B1008091B0008160809305
:100DE000B00080917A00846080937A0080917A00CC
:100DF000826080937A0080917A00816080937A008B
:100E000080917A00806880937A001092C1000E94DD
:100E10004605EEECF1E02491EAEBF1E084918823C1
:100E200099F090E0880F991FFC01E056FE4FA591C4
:100E3000B491FC01EA56FE4F859194918FB7F894D6
:100E4000EC91E22BEC938FBF80E00E94FE030E94A6
:100E5000460585E391E00E94290282E291E00E942A
:100E600029020E94F8058AE291E00E9429020E946C
:100E7000F80587E592E090930A028093090281E0E9
:100E800092E090930C0280930B02E0911302F09198
:100E90001402138615861486DF011B9633961E9264
:100EA000AE17BF07E1F71092110210921202AE01C5
:100EB0004F5F5F4F7A0101E0B7018091130290917B
:100EC00014020E949304882309F460C067E0C701FC
:100ED0000E94E40298858913EFCF80910D02811161
:100EE00025C080911302909114020E94A203B701C1
:100EF00080911302909114020E94830340E064EBFE
:100F000080911302909114020E944F03809113026A
:100F1000909114020E94FC02182F8091130290916C
:100F200014020E94A203112309F4CAC110910E02F7
:100F30008981803109F4FDC1C7010E946E058117C6
:100F400018F480910E0208C08981803111F48CE080
:100F500003C0C7010E946E0580930E0280911102AA
:100F60008F5F809311028981883209F4ACC138F413
:100F7000803109F4A8C1823209F09ECFA4C18B331D
:100F800009F4A1C1823409F097CF9DC16E015DE1E2
:100F9000C50ED11CE1E32E2EE1E03E2E88E591E066
:100FA0000E947801181619060CF04AC06AE070E039
:100FB00080E090E00E94B20588E591E00E94560131
:100FC000182F853659F788E591E00E947801069739
:100FD0002CF310934A010BE411E088E591E00E94A4
:100FE0005601F80181938F0141E551E04E175F07EB
:100FF000A1F71092510180914E018F3F79F68091B7
:101000004F018F3F59F6809150018F3F39F6409143
:101010004D0150E060E070E090914C0120914B0157
:10102000E0E0F1E0A191B191109709F4B7CF8C9174
:101030002813F8CF11968C9111979813F3CF49C1CB
:101040000E94EC0500915401109155012091560128
:1010500030915701DC01CB01801B910BA20BB30B2C
:10106000883E9340A105B10508F427C18091130281
:10107000909114020E94A20340E06CEC8091130254
:10108000909114020E944F0340910D0264E48091FC
:101090001302909114020E944F0380910F02882343
:1010A000D9F1E0910E02E950E33040F4F0E0EE0FA8
:1010B000FF1FE65FFE4F0081118102C00EEE12E0BD
:1010C00080911002882311F180910D0281111EC0C0
:1010D0000E94EC052B013C014801110FAA08BB0836
:1010E00080911302909114020E94FC028130A1F0C1
:1010F0000E94EC05DC01CB0188199909AA09BB09FA
:1011000084159505A605B70558F306C0B801110F5B
:10111000880B990B0E94B205E0911302F091140222
:10112000138615861486DF011B96CF0103961E9247
:101130008A179B07E1F7BE016B5E7F4FCF010E94CC
:101140009304882309F4E8C067E0CE0145960E9425
:10115000E4029C8D8913E0C08091130290911402E7
:101160000E94A203882309F4EAC0B701CE01459684
:101170000E944704882309F4E2C068E0C7010E9486
:10118000E40299858913DBC02A8130E0C901982FD8
:101190008827990F990F990F6981E8E06E9FB00138
:1011A00011249C01262B372B8D89803109F0C5C075
:1011B000688570E08F81AB01481B5109CA01969583
:1011C000982F8827979587950E94FC0D605171098B
:1011D000207F53E0220F331F5A95E1F7620F731FF0
:1011E000613854EE75070CF497C0072E000C880B7D
:1011F000990B0E94CC0C20E030E040E05CE30E94C0
:10120000070D860121E043E00E94780ADF92CF9229
:101210003F922F92FF92EF920E9426101E8A1D8A03
:10122000188E1F8A1A8E198E60E070E0CE014596E6
:101230000E9465020F900F900F900F900F900F90EB
:101240002D893E8981116DC02115310519F0C90123
:101250000E94C20E1E8A1D8A1A8E198E188E1F8A2F
:101260006091F7017091F801CE0145960E94150535
:1012700066E371E0CE0145960E941505B701CE01E7
:1012800045960E9415056BE371E0CE0145960E94DC
:1012900015058D899E890E9429020E94F8058D8975
:1012A0009E890E94C20E0E94EC05609354017093C7
:1012B000550180935601909357010E941F026ECEF4
:1012C00000930D0233CE809112028F5F8093120241
:1012D000F3CD413051056105710561F41496ED912E
:1012E000FC911597309709F459CE16968D919C91E3
:1012F000179710C0452B462B472B09F04FCE189659
:10130000ED91FC911997309709F448CE1A968D917A
:101310009C911B97099542CE60E070E08EEF92ECB5
:1013200070CF1A8E198E65E371E0C9010E941F10FB
:1013300097CF1D3008F005CE0ACEB90151CF60E835
:1013400074EE4ECFCF93DF9310925B0110925A014F
:1013500088EE93E0A0E0B0E080935C0190935D01A3
:10136000A0935E01B0935F0184E191E090935901F5
:101370008093580185EC90E090936501809364011F
:1013800084EC90E0909367018093660180EC90E09C
:10139000909369018093680181EC90E090936B01D8
:1013A00080936A0182EC90E090936D0180936C01D0
:1013B00086EC90E090936F0180936E011092710122
:1013C000109272011092730110927401EFECF1E02F
:1013D0002491EBEBF1E084918823C1F090E0880F39
:1013E000991FFC01E056FE4FC591D491FC01EA56CD
:1013F000FE4FA591B4919FB7F8948881E22FE095B4
:101400008E2388838C91E823EC939FBFEFECF1E06F
:10141000E491E0932A02EBEBF1E0E491F0E0EE0FCF
:10142000FF1FE655FE4F8591949190932C02809377
:101430002B02109235021092370210923602E5E329
:10144000F2E08DE292E012928E179F07E1F78AE2B6
:1014500092E0909314028093130210921102109262
:10146000120210920D0289E080930E0281E08093B7
:101470000F02809310021092200210921F0210920D
:10148000010283E0809302028DE391E090930402D5
:1014900080930302109206021092050210920A0233
:1014A0001092090210920C0210920B021092080284
:1014B000109207021092F50184E08093F60184E413
:1014C00091E09093F8018093F7011092FA01109245
:1014D000F9011092FE011092FD011092000210928B
:1014E000FF011092FC011092FB01DF91CF91089552
:1014F000EF920F931F93CF93DF93E80147FD02C054
:1015000034E001C034E1042E000C550B57FF03C03A
:10151000519541955109E32E022F242FAE010E94CF
:10152000980ACE01DF91CF911F910F91EF9008950E
:10153000A9E0B0E0EEE9FAE00C94CB0D6A01122FBD
:10154000B02E2BE3201720F0FF24F394F00E02C0FE
:101550002CE3F22E0F2D27E0AE014F5F5F4F0E946C
:10156000F20BBC014981842F8970813031F0E1FC9C
:1015700006C0E0FE06C090E205C09DE203C09BE20B
:1015800001C090E05E2D507143FF3CC0911102C03C
:1015900083E001C084E0811718F4212F281B01C0CB
:1015A00020E051110BC0F601822F30E2882319F0A0
:1015B00031938150FBCFC20ED11C20E0992329F03A
:1015C000D6019C93F60131966F01C6010396E2FEA7
:1015D0000AC03EE4D6013C9341E411964C93119726
:1015E00012963C9306C03EE6F601308341E6418305
:1015F0003283FC01322F40E2332309F442C041938D
:101600003150FACF42FF44C0911102C083E001C0C3
:1016100084E0811718F4212F281B01C020E051110C
:101620000BC0F601822F30E2882319F031938150EC
:10163000FBCFC20ED11C20E0992329F0D6019C9348
:10164000F60131966F01C6010396E2FE0BC039E444
:10165000D6013C933EE411963C93119736E41296E2
:101660003C9307C039E6F60130833EE6318336E627
:101670003283FC01322F40E2332319F04193315081
:10168000FBCFFC01E20FF11D10828EEF9FEFA6C091
:1016900021E030E0911102C020E030E0161617067C
:1016A0001CF4FB01319602C0E1E0F0E02E0F3F1F79
:1016B000BB2021F0EB2DF0E0319602C0E0E0F0E03D
:1016C0002E0F3F1FE12FF0E02E173F071CF4121BD7
:1016D000212F01C020E08E2D887159F4F601822F50
:1016E00030E2882319F031938150FBCFC20ED11C18
:1016F00020E0992329F0D6019C93F60131966F01E1
:1017000051110BC0F601822F90E3882319F09193B9
:101710008150FBCFC20ED11C20E00F2D060F9A8105
:10172000342F307144FF03C0913309F40150101677
:1017300024F4093018F008E001C001E0AB0177FFA4
:1017400002C040E050E0FB01E41BF50BA1E0B0E07B
:10175000AC0FBD1FEA0FFB1F8EE2A82E4B01801AB3
:1017600091080B2D10E01195019511094F3FBFEF26
:101770005B0721F4D601AC9211966D0164177507D1
:101780002CF08416950614F4818101C080E3415049
:1017900051093196D60111967D014017510724F069
:1017A000D6018C936701E2CF6417750739F496333D
:1017B00020F4953319F4311101C081E3F6018083DF
:1017C000F701822F90E2882319F091938150FBCF8B
:1017D000F701E20FF11D108280E090E02996ECE025
:1017E0000C94E70D283008F027E03327DA01990F31
:1017F000311D87FD916000966105710539F43260F5
:101800002E5F3D9330E32A95E1F708959F3F30F036
:1018100080387105610509F03C5F3C5F3D93913074
:1018200008F08068911DDF93CF931F930F93FF9271
:10183000EF92192F987F9695E92F96959695E90F37
:10184000FF27EE53FF4F99273327EE24FF24A701EC
:10185000E70105900894079428F4360FE71EF81E58
:10186000491F511D660F771F881F991F0694A1F706
:101870000590079428F4E70EF81E491F561FC11D56
:10188000770F881F991F661F0694A1F7059007948C
:1018900028F4F80E491F561FC71FD11D880F991F26
:1018A000661F771F0694A1F70590079420F4490F4F
:1018B000561FC71FD81F990F661F771F881F0694D2
:1018C000A9F784911095177041F0D695C795579553
:1018D0004795F794E7941A95C1F7E8E6F0E0689425
:1018E0001590159135916591959105907FE27395CD
:1018F000E118F10A430B560BC90BD009C0F7E10CF4
:10190000F11E431F561FC91FD01D7EF4703311F402
:101910008A95E6CFE894015030F0080F0AF40027CA
:10192000021708F4202F2395022F7A3328F079E349
:101930007D932A95E9F710C07D932A9589F6069440
:1019400097956795379517951794E118F10A430B0A
:10195000560BC90BD00998F023957E9173957A3375
:1019600008F070E37C932013B8F77E9170617D934B
:1019700030F0839571E37D9370E32A95E1F71124AC
:10198000EF90FF900F911F91CF91DF91992787FDE5
:1019900090950895E89409C097FB3EF49095809542
:1019A000709561957F4F8F4F9F4F9923A9F0F92F25
:1019B00096E9BB279395F695879577956795B795A3
:1019C000F111F8CFFAF4BB0F11F460FF1BC06F5F89
:1019D0007F4F8F4F9F4F16C0882311F096E911C09B
:1019E000772321F09EE8872F762F05C0662371F0BC
:1019F00096E8862F70E060E02AF09A95660F771FD0
:101A0000881FDAF7880F9695879597F908950E94B1
:101A10001A0D0C948B0D0E947D0D38F00E94840DE0
:101A200020F0952311F00C94740D0C947A0D112470
:101A30000C94BF0D0E949C0D70F3959FC1F3950F00
:101A400050E0551F629FF001729FBB27F00DB11D42
:101A5000639FAA27F00DB11DAA1F649F6627B00DD2
:101A6000A11D661F829F2227B00DA11D621F739FBB
:101A7000B00DA11D621F839FA00D611D221F749FC9
:101A80003327A00D611D231F849F600D211D822F10
:101A9000762F6A2F11249F5750409AF0F1F0882337
:101AA0004AF0EE0FFF1FBB1F661F771F881F915064
:101AB0005040A9F79E3F510580F00C94740D0C9492
:101AC000BF0D5F3FE4F3983ED4F386957795679515
:101AD000B795F795E7959F5FC1F7FE2B880F911D8E
:101AE0009695879597F9089597F99F6780E870E034
:101AF00060E008959FEF80EC089500240A94161684
:101B0000170618060906089500240A9412161306EB
:101B1000140605060895092E0394000C11F4882379
:101B200052F0BB0F40F4BF2B11F460FF04C06F5F95
:101B30007F4F8F4F9F4F089557FD9058440F551F6B
:101B400059F05F3F71F04795880F97FB991F61F03F
:101B50009F3F79F087950895121613061406551FB6
:101B6000F2CF4695F1DF08C0161617061806991F22
:101B7000F1CF86957105610508940895E894BB2717
:101B800066277727CB0197F908952F923F924F92BE
:101B90005F926F927F928F929F92AF92BF92CF92FD
:101BA000DF92EF92FF920F931F93CF93DF93CDB706
:101BB000DEB7CA1BDB0B0FB6F894DEBF0FBECDBF7E
:101BC00009942A88398848885F846E847D848C844F
:101BD0009B84AA84B984C884DF80EE80FD800C8158
:101BE0001B81AA81B981CE0FD11D0FB6F894DEBF3B
:101BF0000FBECDBFED01089597FB072E16F400949C
:101C000007D077FD09D00E94100E07FC05D03EF4E6
:101C1000909581959F4F0895709561957F4F089598
:101C2000AA1BBB1B51E107C0AA1FBB1FA617B70702
:101C300010F0A61BB70B881F991F5A95A9F780951E
:101C40009095BC01CD010895EE0FFF1F0590F49112
:101C5000E02D09940F931F93CF93DF93823091056A
:101C600010F482E090E0E0913A02F0913B0220E033
:101C700030E0A0E0B0E0309719F14081518102815D
:101C8000138148175907C8F08417950769F410970E
:101C900031F012960C93129713961C9327C0009361
:101CA0003A0210933B0222C02115310519F0421768
:101CB000530718F49A01BD01EF01DF01F801DBCFF2
:101CC00021153105F9F0281B390B2430310580F43A
:101CD0008A819B816115710521F0FB0193838283C9
:101CE00004C090933B0280933A02FE01329644C0B6
:101CF000FE01E20FF31F8193919322503109398342
:101D000028833AC02091380230913902232B41F4C4
:101D10002091060130910701309339022093380257
:101D200020910401309105012115310541F42DB7B1
:101D30003EB74091080150910901241B350BE091F9
:101D40003802F0913902E217F307A0F42E1B3F0B83
:101D50002817390778F0AC014E5F5F4F241735071D
:101D600048F04E0F5F1F5093390240933802819321
:101D7000919302C0E0E0F0E0CF01DF91CF911F919D
:101D80000F910895CF93DF93009709F481C0FC0170
:101D9000329713821282A0913A02B0913B021097BF
:101DA00081F420813181820F931F2091380230917C
:101DB00039022817390751F5F0933902E0933802B8
:101DC00067C0ED0120E030E0CE17DF0740F44A8124
:101DD0005B819E0141155105F1F0EA01F5CFD383F6
:101DE000C28340815181840F951FC817D90759F4C8
:101DF00088819981840F951F0296918380838A81BF
:101E00009B81938382832115310529F4F0933B0252
:101E1000E0933A023DC0E901FB83EA83499159917D
:101E2000C40FD51FEC17FD0761F480819181840FE9
:101E3000951F0296E90199838883828193819B8310
:101E40008A83E0E0F0E012968D919C9113970097C1
:101E500019F0FD01DC01F7CF8D919C9111979D0147
:101E60002E5F3F4F820F931F20913802309139022D
:101E70002817390769F4309729F410923B02109221
:101E80003A0202C013821282B0933902A093380240
:101E9000DF91CF910895A0E0B0E0E1E5FFE00C9480
:101EA000C90DEC01009721F4CB010E942A0EB4C0A9
:101EB000FC01E60FF71F9C0122503109E217F307DE
:101EC00008F4A8C0D9010D911C91119706171707A6
:101ED000B0F00530110508F49BC0C80104978617BF
:101EE000970708F495C002501109061B170B0193C0
:101EF00011936D937C93CF010E94C20E89C05B0148
:101F0000A01AB10A4C01800E911EA0913A02B09124
:101F10003B02612C712CE12CF12C109709F446C086
:101F20008D919C911197A815B905B1F56C0142E00E
:101F3000C40ED11CCA14DB0478F14C018A189B082A
:101F4000640142E0C40ED11C1296BC901297139605
:101F5000AC91B5E0CB16D10440F0B282A38391825C
:101F60008082D9016D937C9309C00E5F1F4F800F53
:101F7000911FF90191838083EB2DFA2FE114F10475
:101F800031F0D7011396FC93EE93129741C0F09372
:101F90003B02E0933A023CC06816790608F43C0123
:101FA0007D0112960D90BC91A02DB7CF8091380283
:101FB0009091390288169906E1F466167706C8F4FE
:101FC0008091040190910501009741F48DB79EB76F
:101FD0004091080150910901841B950BE817F907FE
:101FE000C8F4F0933902E0933802F90171836083F9
:101FF0000FC0CB010E942A0E7C01009759F0A80166
:10200000BE010E941610CE010E94C20EC70104C07C
:10201000CE0102C080E090E0CDB7DEB7EEE00C94D8
:10202000E50D81E090E0F8940C94D912FB01DC01FD
:1020300002C001900D9241505040D8F70895FB0125
:10204000DC0101900D920020E1F70895AEE0B0E0D0
:10205000ECE2F0E10C94D30D0D891E8986E08C83AF
:102060001A8309838FEF9FE79E838D83AE01475EBE
:102070005F4F6F89788DCE0101960E944810EF81E5
:10208000F885E00FF11F10822E96E4E00C94EF0D1E
:10209000ABE0B0E0EEE4F0E10C94C50D6C017B0127
:1020A0008A01FC0117821682838181FFCCC1CE0197
:1020B00001963C01F6019381F70193FD859193FF11
:1020C00081917F01882309F4BAC1853239F493FDE7
:1020D000859193FF81917F01853229F4B60190E0CB
:1020E0000E943F12E7CF912C212C312CFFE1F315F8
:1020F000D8F08B3279F038F4803279F08332A1F461
:10210000232D20611DC08D3261F0803369F4232DB1
:10211000216016C0832D8260382EE32DE4603E2EB0
:102120002AC0F32DF8601DC037FC2DC020ED280F0C
:102130002A3040F08E32B9F436FC81C1232D206460
:10214000322E19C036FE06C08AE0989E200D11245A
:10215000922E11C0EAE02E9E200D1124222EF32D86
:10216000F0623F2E08C08C3621F4832D8068382E13
:1021700002C0883641F4F70193FD859193FF819168
:102180007F018111B3CF982F9F7D9554933028F410
:102190000C5F1F4F9FE399830DC0833631F0833767
:1021A00071F0833509F059C021C0F801808189831D
:1021B0000E5F1F4F88248394912C530113C0280174
:1021C000F2E04F0E511CF801A080B18036FE03C032
:1021D000692D70E002C06FEF7FEFC5010E943412DD
:1021E0004C018201F32DFF773F2E16C0280122E01B
:1021F000420E511CF801A080B18036FE03C0692D4B
:1022000070E002C06FEF7FEFC5010E9429124C0100
:10221000F32DF0683F2E820133FC1BC0822D90E02D
:1022200088169906B0F4B60180E290E00E943F1251
:102230002A94F4CFF50137FC859137FE81915F0137
:10224000B60190E00E943F1221102A9421E0821AE8
:1022500091088114910471F7E8C0843611F0893631
:1022600041F5F80137FE07C0608171818281938159
:102270000C5F1F4F08C060817181072E000C880B16
:10228000990B0E5F1F4FF32DFF763F2E97FF09C06E
:1022900090958095709561957F4F8F4F9F4FF06817
:1022A0003F2E2AE030E0A3010E947B12882E861880
:1022B00045C0853731F4232D2F7EB22E2AE030E041
:1022C00025C0932D997FB92E8F36C1F018F488352B
:1022D00079F0B5C0803719F0883721F0B0C0E92F08
:1022E000E061BE2EB4FE0DC0FB2DF460BF2E09C010
:1022F00034FE0AC0292F2660B22E06C028E030E046
:1023000005C020E130E002C020E132E0F801B7FE74
:1023100007C060817181828193810C5F1F4F06C06D
:102320006081718180E090E00E5F1F4FA3010E94E9
:102330007B12882E8618FB2DFF773F2E36FE0DC0B0
:10234000232D2E7FA22E891458F434FE0BC032FCAC
:1023500009C0832D8E7EA82E05C0B82CA32C03C0E7
:10236000B82C01C0B92CA4FE0FC0FE01E80DF11D70
:102370008081803321F49A2D997EA92E09C0A2FE76
:1023800006C0B394B39404C08A2D867809F0B39440
:10239000A3FC11C0A0FE06C0B21488F4280C922C35
:1023A0009B180EC0B21460F4B60180E290E00E9467
:1023B0003F12B394F7CFB21418F42B1802C0982C24
:1023C000212CA4FE10C0B60180E390E00E943F12D1
:1023D000A2FE17C0A1FC03C088E790E002C088E518
:1023E00090E0B6010CC08A2D867859F0A1FE02C09B
:1023F0008BE201C080E2A7FC8DE2B60190E00E9472
:102400003F12891438F4B60180E390E00E943F1235
:102410009A94F7CF8A94F301E80DF11D8081B601FB
:1024200090E00E943F128110F5CF222009F442CEA5
:10243000B60180E290E00E943F122A94F6CFF601A6
:102440008681978102C08FEF9FEF2B96E2E10C947B
:10245000E10DFC010590615070400110D8F78095A6
:1024600090958E0F9F1F0895FC0161507040019060
:102470000110D8F7809590958E0F9F1F08950F93A8
:102480001F93CF93DF93FB01238121FD03C08FEFC7
:102490009FEF2CC022FF16C04681578124813581D1
:1024A0004217530744F4A081B1819D012F5F3F4F34
:1024B000318320838C93268137812F5F3F4F378371
:1024C000268314C08B01EC01FB010084F185E02D13
:1024D0000995892BE1F6D80116968D919C91179755
:1024E000019617969C938E931697CE01DF91CF910C
:1024F0001F910F910895FA01AA27283051F1203138
:1025000081F1E8946F936E7F6E5F7F4F8F4F9F4F87
:10251000AF4FB1E03ED0B4E03CD0670F781F891FC9
:102520009A1FA11D680F791F8A1F911DA11D6A0F97
:10253000711D811D911DA11D20D009F468943F914A
:102540002AE0269F11243019305D3193DEF6CF0149
:102550000895462F4770405D4193B3E00FD0C9F70F
:10256000F6CF462F4F70405D4A3318F0495D31FD7C
:102570004052419302D0A9F7EACFB4E0A6959795CF
:10258000879577956795BA95C9F7009761057105A5
:1025900008959B01AC010A2E0694579547953795EF
:1025A0002795BA95C9F7620F731F841F951FA01D49
:0625B0000895F894FFCF2E
:1025B6000102000000003C0280005E00BC007701C2
:1025C60000000000B00119014701FD017801560124
:1025D6006A01626B636D643D31007061676520302E
:1025E6000025734320002E7478743D2200625761E3
:0A25F600746572007454656D700086
:00000001FF
